{
  "_format": "hh-sol-artifact-1",
  "contractName": "PoolPair",
  "sourceName": "contracts/PoolPair.sol",
  "abi": [
    {
      "inputs": [
        {
          "internalType": "contract IERC20",
          "name": "_token0",
          "type": "address"
        },
        {
          "internalType": "contract IERC20",
          "name": "_token1",
          "type": "address"
        }
      ],
      "stateMutability": "nonpayable",
      "type": "constructor"
    },
    {
      "anonymous": false,
      "inputs": [
        {
          "indexed": true,
          "internalType": "address",
          "name": "owner",
          "type": "address"
        },
        {
          "indexed": true,
          "internalType": "address",
          "name": "spender",
          "type": "address"
        },
        {
          "indexed": false,
          "internalType": "uint256",
          "name": "value",
          "type": "uint256"
        }
      ],
      "name": "Approval",
      "type": "event"
    },
    {
      "anonymous": false,
      "inputs": [
        {
          "indexed": true,
          "internalType": "address",
          "name": "sender",
          "type": "address"
        },
        {
          "indexed": false,
          "internalType": "uint256",
          "name": "amount0",
          "type": "uint256"
        },
        {
          "indexed": false,
          "internalType": "uint256",
          "name": "amount1",
          "type": "uint256"
        },
        {
          "indexed": true,
          "internalType": "address",
          "name": "to",
          "type": "address"
        }
      ],
      "name": "Burn",
      "type": "event"
    },
    {
      "anonymous": false,
      "inputs": [
        {
          "indexed": true,
          "internalType": "address",
          "name": "sender",
          "type": "address"
        },
        {
          "indexed": false,
          "internalType": "uint256",
          "name": "amount0",
          "type": "uint256"
        },
        {
          "indexed": false,
          "internalType": "uint256",
          "name": "amount1",
          "type": "uint256"
        }
      ],
      "name": "Mint",
      "type": "event"
    },
    {
      "anonymous": false,
      "inputs": [
        {
          "indexed": true,
          "internalType": "address",
          "name": "sender",
          "type": "address"
        },
        {
          "indexed": false,
          "internalType": "contract IERC20",
          "name": "tokenIn",
          "type": "address"
        },
        {
          "indexed": false,
          "internalType": "uint256",
          "name": "tokenInAmount",
          "type": "uint256"
        },
        {
          "indexed": false,
          "internalType": "uint256",
          "name": "tokenOutAmount",
          "type": "uint256"
        }
      ],
      "name": "Swap",
      "type": "event"
    },
    {
      "anonymous": false,
      "inputs": [
        {
          "indexed": true,
          "internalType": "address",
          "name": "from",
          "type": "address"
        },
        {
          "indexed": true,
          "internalType": "address",
          "name": "to",
          "type": "address"
        },
        {
          "indexed": false,
          "internalType": "uint256",
          "name": "value",
          "type": "uint256"
        }
      ],
      "name": "Transfer",
      "type": "event"
    },
    {
      "inputs": [
        {
          "internalType": "uint256",
          "name": "amountADesired",
          "type": "uint256"
        },
        {
          "internalType": "uint256",
          "name": "amountBDesired",
          "type": "uint256"
        },
        {
          "internalType": "uint256",
          "name": "amountAMin",
          "type": "uint256"
        },
        {
          "internalType": "uint256",
          "name": "amountBMin",
          "type": "uint256"
        },
        {
          "internalType": "address",
          "name": "to",
          "type": "address"
        }
      ],
      "name": "addLiquidity",
      "outputs": [
        {
          "internalType": "uint256",
          "name": "amountA",
          "type": "uint256"
        },
        {
          "internalType": "uint256",
          "name": "amountB",
          "type": "uint256"
        },
        {
          "internalType": "uint256",
          "name": "liquidity",
          "type": "uint256"
        }
      ],
      "stateMutability": "nonpayable",
      "type": "function"
    },
    {
      "inputs": [
        {
          "internalType": "address",
          "name": "owner",
          "type": "address"
        },
        {
          "internalType": "address",
          "name": "spender",
          "type": "address"
        }
      ],
      "name": "allowance",
      "outputs": [
        {
          "internalType": "uint256",
          "name": "",
          "type": "uint256"
        }
      ],
      "stateMutability": "view",
      "type": "function"
    },
    {
      "inputs": [
        {
          "internalType": "address",
          "name": "spender",
          "type": "address"
        },
        {
          "internalType": "uint256",
          "name": "amount",
          "type": "uint256"
        }
      ],
      "name": "approve",
      "outputs": [
        {
          "internalType": "bool",
          "name": "",
          "type": "bool"
        }
      ],
      "stateMutability": "nonpayable",
      "type": "function"
    },
    {
      "inputs": [
        {
          "internalType": "address",
          "name": "account",
          "type": "address"
        }
      ],
      "name": "balanceOf",
      "outputs": [
        {
          "internalType": "uint256",
          "name": "",
          "type": "uint256"
        }
      ],
      "stateMutability": "view",
      "type": "function"
    },
    {
      "inputs": [],
      "name": "decimals",
      "outputs": [
        {
          "internalType": "uint8",
          "name": "",
          "type": "uint8"
        }
      ],
      "stateMutability": "view",
      "type": "function"
    },
    {
      "inputs": [
        {
          "internalType": "address",
          "name": "spender",
          "type": "address"
        },
        {
          "internalType": "uint256",
          "name": "subtractedValue",
          "type": "uint256"
        }
      ],
      "name": "decreaseAllowance",
      "outputs": [
        {
          "internalType": "bool",
          "name": "",
          "type": "bool"
        }
      ],
      "stateMutability": "nonpayable",
      "type": "function"
    },
    {
      "inputs": [],
      "name": "getReserves",
      "outputs": [
        {
          "internalType": "uint256",
          "name": "_reserve0",
          "type": "uint256"
        },
        {
          "internalType": "uint256",
          "name": "_reserve1",
          "type": "uint256"
        }
      ],
      "stateMutability": "view",
      "type": "function"
    },
    {
      "inputs": [
        {
          "internalType": "address",
          "name": "spender",
          "type": "address"
        },
        {
          "internalType": "uint256",
          "name": "addedValue",
          "type": "uint256"
        }
      ],
      "name": "increaseAllowance",
      "outputs": [
        {
          "internalType": "bool",
          "name": "",
          "type": "bool"
        }
      ],
      "stateMutability": "nonpayable",
      "type": "function"
    },
    {
      "inputs": [],
      "name": "lpTokenPerToken",
      "outputs": [
        {
          "internalType": "uint256",
          "name": "",
          "type": "uint256"
        }
      ],
      "stateMutability": "view",
      "type": "function"
    },
    {
      "inputs": [],
      "name": "name",
      "outputs": [
        {
          "internalType": "string",
          "name": "",
          "type": "string"
        }
      ],
      "stateMutability": "view",
      "type": "function"
    },
    {
      "inputs": [
        {
          "internalType": "uint256",
          "name": "liquidity",
          "type": "uint256"
        },
        {
          "internalType": "uint256",
          "name": "amountAMin",
          "type": "uint256"
        },
        {
          "internalType": "uint256",
          "name": "amountBMin",
          "type": "uint256"
        },
        {
          "internalType": "address",
          "name": "to",
          "type": "address"
        }
      ],
      "name": "removeLiquidity",
      "outputs": [],
      "stateMutability": "nonpayable",
      "type": "function"
    },
    {
      "inputs": [
        {
          "internalType": "contract IERC20",
          "name": "tokenIn",
          "type": "address"
        },
        {
          "internalType": "uint256",
          "name": "amount",
          "type": "uint256"
        },
        {
          "internalType": "uint256",
          "name": "minOut",
          "type": "uint256"
        }
      ],
      "name": "swap",
      "outputs": [
        {
          "internalType": "bool",
          "name": "",
          "type": "bool"
        }
      ],
      "stateMutability": "nonpayable",
      "type": "function"
    },
    {
      "inputs": [],
      "name": "symbol",
      "outputs": [
        {
          "internalType": "string",
          "name": "",
          "type": "string"
        }
      ],
      "stateMutability": "view",
      "type": "function"
    },
    {
      "inputs": [],
      "name": "token0",
      "outputs": [
        {
          "internalType": "contract IERC20",
          "name": "",
          "type": "address"
        }
      ],
      "stateMutability": "view",
      "type": "function"
    },
    {
      "inputs": [],
      "name": "token1",
      "outputs": [
        {
          "internalType": "contract IERC20",
          "name": "",
          "type": "address"
        }
      ],
      "stateMutability": "view",
      "type": "function"
    },
    {
      "inputs": [],
      "name": "totalSupply",
      "outputs": [
        {
          "internalType": "uint256",
          "name": "",
          "type": "uint256"
        }
      ],
      "stateMutability": "view",
      "type": "function"
    },
    {
      "inputs": [
        {
          "internalType": "address",
          "name": "to",
          "type": "address"
        },
        {
          "internalType": "uint256",
          "name": "amount",
          "type": "uint256"
        }
      ],
      "name": "transfer",
      "outputs": [
        {
          "internalType": "bool",
          "name": "",
          "type": "bool"
        }
      ],
      "stateMutability": "nonpayable",
      "type": "function"
    },
    {
      "inputs": [
        {
          "internalType": "address",
          "name": "from",
          "type": "address"
        },
        {
          "internalType": "address",
          "name": "to",
          "type": "address"
        },
        {
          "internalType": "uint256",
          "name": "amount",
          "type": "uint256"
        }
      ],
      "name": "transferFrom",
      "outputs": [
        {
          "internalType": "bool",
          "name": "",
          "type": "bool"
        }
      ],
      "stateMutability": "nonpayable",
      "type": "function"
    }
  ],
  "bytecode": "0x6080604052600060075560006008553480156200001b57600080fd5b5060405162003ae038038062003ae0833981810160405281019062000041919062000232565b6040518060400160405280600881526020017f4c5020546f6b656e0000000000000000000000000000000000000000000000008152506040518060400160405280600481526020017f52444c50000000000000000000000000000000000000000000000000000000008152508160039080519060200190620000c59291906200016b565b508060049080519060200190620000de9291906200016b565b50505081600560006101000a81548173ffffffffffffffffffffffffffffffffffffffff021916908373ffffffffffffffffffffffffffffffffffffffff16021790555080600660006101000a81548173ffffffffffffffffffffffffffffffffffffffff021916908373ffffffffffffffffffffffffffffffffffffffff16021790555050506200033a565b8280546200017990620002bb565b90600052602060002090601f0160209004810192826200019d5760008555620001e9565b82601f10620001b857805160ff1916838001178555620001e9565b82800160010185558215620001e9579182015b82811115620001e8578251825591602001919060010190620001cb565b5b509050620001f89190620001fc565b5090565b5b8082111562000217576000816000905550600101620001fd565b5090565b6000815190506200022c8162000320565b92915050565b600080604083850312156200024657600080fd5b600062000256858286016200021b565b925050602062000269858286016200021b565b9150509250929050565b600062000280826200029b565b9050919050565b6000620002948262000273565b9050919050565b600073ffffffffffffffffffffffffffffffffffffffff82169050919050565b60006002820490506001821680620002d457607f821691505b60208210811415620002eb57620002ea620002f1565b5b50919050565b7f4e487b7100000000000000000000000000000000000000000000000000000000600052602260045260246000fd5b6200032b8162000287565b81146200033757600080fd5b50565b613796806200034a6000396000f3fe608060405234801561001057600080fd5b50600436106101165760003560e01c806395d89b41116100a2578063d21220a711610071578063d21220a714610320578063d8a68a281461033e578063dd62ed3e1461035c578063e0ab07721461038c578063e39b0eb5146103be57610116565b806395d89b41146102725780639f1d0f5914610290578063a457c2d7146102c0578063a9059cbb146102f057610116565b806318160ddd116100e957806318160ddd146101a657806323b872dd146101c4578063313ce567146101f4578063395093511461021257806370a082311461024257610116565b806306fdde031461011b5780630902f1ac14610139578063095ea7b3146101585780630dfe168114610188575b600080fd5b6101236103da565b6040516101309190613097565b60405180910390f35b61014161046c565b60405161014f9291906133b4565b60405180910390f35b610172600480360381019061016d91906125ca565b61047d565b60405161017f919061302a565b60405180910390f35b6101906104a0565b60405161019d9190613045565b60405180910390f35b6101ae6104c6565b6040516101bb9190613399565b60405180910390f35b6101de60048036038101906101d9919061257b565b6104d0565b6040516101eb919061302a565b60405180910390f35b6101fc6104ff565b6040516102099190613414565b60405180910390f35b61022c600480360381019061022791906125ca565b610508565b604051610239919061302a565b60405180910390f35b61025c60048036038101906102579190612516565b61053f565b6040516102699190613399565b60405180910390f35b61027a610587565b6040516102879190613097565b60405180910390f35b6102aa60048036038101906102a5919061262f565b610619565b6040516102b7919061302a565b60405180910390f35b6102da60048036038101906102d591906125ca565b610abb565b6040516102e7919061302a565b60405180910390f35b61030a600480360381019061030591906125ca565b610b32565b604051610317919061302a565b60405180910390f35b610328610b55565b6040516103359190613045565b60405180910390f35b610346610b7b565b6040516103539190613399565b60405180910390f35b6103766004803603810190610371919061253f565b610b81565b6040516103839190613399565b60405180910390f35b6103a660048036038101906103a1919061270a565b610c08565b6040516103b5939291906133dd565b60405180910390f35b6103d860048036038101906103d391906126a7565b610ce1565b005b6060600380546103e990613634565b80601f016020809104026020016040519081016040528092919081815260200182805461041590613634565b80156104625780601f1061043757610100808354040283529160200191610462565b820191906000526020600020905b81548152906001019060200180831161044557829003601f168201915b5050505050905090565b600080600754915060085490509091565b600080610488610d8b565b9050610495818585610d93565b600191505092915050565b600560009054906101000a900473ffffffffffffffffffffffffffffffffffffffff1681565b6000600254905090565b6000806104db610d8b565b90506104e8858285610f5e565b6104f3858585610fea565b60019150509392505050565b6000600c905090565b600080610513610d8b565b90506105348185856105258589610b81565b61052f9190613461565b610d93565b600191505092915050565b60008060008373ffffffffffffffffffffffffffffffffffffffff1673ffffffffffffffffffffffffffffffffffffffff168152602001908152602001600020549050919050565b60606004805461059690613634565b80601f01602080910402602001604051908101604052809291908181526020018280546105c290613634565b801561060f5780601f106105e45761010080835404028352916020019161060f565b820191906000526020600020905b8154815290600101906020018083116105f257829003601f168201915b5050505050905090565b600080600061062661046c565b915091506000600560009054906101000a900473ffffffffffffffffffffffffffffffffffffffff1690506000600660009054906101000a900473ffffffffffffffffffffffffffffffffffffffff16905060008273ffffffffffffffffffffffffffffffffffffffff168973ffffffffffffffffffffffffffffffffffffffff1614806106df57508173ffffffffffffffffffffffffffffffffffffffff168973ffffffffffffffffffffffffffffffffffffffff16145b61071e576040517f08c379a0000000000000000000000000000000000000000000000000000000008152600401610715906131d9565b60405180910390fd5b8273ffffffffffffffffffffffffffffffffffffffff168973ffffffffffffffffffffffffffffffffffffffff16141561082a57610789610768898761126b90919063ffffffff16565b61077b8a876112c990919063ffffffff16565b61134490919063ffffffff16565b90508681116107cd576040517f08c379a00000000000000000000000000000000000000000000000000000000081526004016107c4906132f9565b60405180910390fd5b6107fa33308a8673ffffffffffffffffffffffffffffffffffffffff1661138e909392919063ffffffff16565b61082533828473ffffffffffffffffffffffffffffffffffffffff166114179092919063ffffffff16565b610933565b8173ffffffffffffffffffffffffffffffffffffffff168973ffffffffffffffffffffffffffffffffffffffff16141561093257610895610874898661126b90919063ffffffff16565b6108878a886112c990919063ffffffff16565b61134490919063ffffffff16565b90508681116108d9576040517f08c379a00000000000000000000000000000000000000000000000000000000081526004016108d0906132f9565b60405180910390fd5b61090633308a8573ffffffffffffffffffffffffffffffffffffffff1661138e909392919063ffffffff16565b61093133828573ffffffffffffffffffffffffffffffffffffffff166114179092919063ffffffff16565b5b5b60008373ffffffffffffffffffffffffffffffffffffffff166370a08231306040518263ffffffff1660e01b815260040161096e9190612faf565b60206040518083038186803b15801561098657600080fd5b505afa15801561099a573d6000803e3d6000fd5b505050506040513d601f19601f820116820180604052508101906109be919061267e565b905060008373ffffffffffffffffffffffffffffffffffffffff166370a08231306040518263ffffffff1660e01b81526004016109fb9190612faf565b60206040518083038186803b158015610a1357600080fd5b505afa158015610a27573d6000803e3d6000fd5b505050506040513d601f19601f82011682018060405250810190610a4b919061267e565b9050610a57828261149d565b3373ffffffffffffffffffffffffffffffffffffffff167ffa2dda1cc1b86e41239702756b13effbc1a092b5c57e3ad320fbe4f3b13fe2358c8c86604051610aa193929190613060565b60405180910390a260019750505050505050509392505050565b600080610ac6610d8b565b90506000610ad48286610b81565b905083811015610b19576040517f08c379a0000000000000000000000000000000000000000000000000000000008152600401610b1090613359565b60405180910390fd5b610b268286868403610d93565b60019250505092915050565b600080610b3d610d8b565b9050610b4a818585610fea565b600191505092915050565b600660009054906101000a900473ffffffffffffffffffffffffffffffffffffffff1681565b60095481565b6000600160008473ffffffffffffffffffffffffffffffffffffffff1673ffffffffffffffffffffffffffffffffffffffff16815260200190815260200160002060008373ffffffffffffffffffffffffffffffffffffffff1673ffffffffffffffffffffffffffffffffffffffff16815260200190815260200160002054905092915050565b6000806000610c19888888886114af565b80935081945050506000600560009054906101000a900473ffffffffffffffffffffffffffffffffffffffff1690506000600660009054906101000a900473ffffffffffffffffffffffffffffffffffffffff169050610c9c3330878573ffffffffffffffffffffffffffffffffffffffff1661138e909392919063ffffffff16565b610cc93330868473ffffffffffffffffffffffffffffffffffffffff1661138e909392919063ffffffff16565b610cd2866115ef565b92505050955095509592505050565b610cec3330866118b4565b50600080610cf9836118dc565b9150915084821015610d40576040517f08c379a0000000000000000000000000000000000000000000000000000000008152600401610d37906131b9565b60405180910390fd5b83811015610d83576040517f08c379a0000000000000000000000000000000000000000000000000000000008152600401610d7a90613219565b60405180910390fd5b505050505050565b600033905090565b600073ffffffffffffffffffffffffffffffffffffffff168373ffffffffffffffffffffffffffffffffffffffff161415610e03576040517f08c379a0000000000000000000000000000000000000000000000000000000008152600401610dfa90613299565b60405180910390fd5b600073ffffffffffffffffffffffffffffffffffffffff168273ffffffffffffffffffffffffffffffffffffffff161415610e73576040517f08c379a0000000000000000000000000000000000000000000000000000000008152600401610e6a906130f9565b60405180910390fd5b80600160008573ffffffffffffffffffffffffffffffffffffffff1673ffffffffffffffffffffffffffffffffffffffff16815260200190815260200160002060008473ffffffffffffffffffffffffffffffffffffffff1673ffffffffffffffffffffffffffffffffffffffff168152602001908152602001600020819055508173ffffffffffffffffffffffffffffffffffffffff168373ffffffffffffffffffffffffffffffffffffffff167f8c5be1e5ebec7d5bd14f71427d1e84f3dd0314c0f7b2291e5b200ac8c7c3b92583604051610f519190613399565b60405180910390a3505050565b6000610f6a8484610b81565b90507fffffffffffffffffffffffffffffffffffffffffffffffffffffffffffffffff8114610fe45781811015610fd6576040517f08c379a0000000000000000000000000000000000000000000000000000000008152600401610fcd90613139565b60405180910390fd5b610fe38484848403610d93565b5b50505050565b600073ffffffffffffffffffffffffffffffffffffffff168373ffffffffffffffffffffffffffffffffffffffff16141561105a576040517f08c379a000000000000000000000000000000000000000000000000000000000815260040161105190613279565b60405180910390fd5b600073ffffffffffffffffffffffffffffffffffffffff168273ffffffffffffffffffffffffffffffffffffffff1614156110ca576040517f08c379a00000000000000000000000000000000000000000000000000000000081526004016110c1906130b9565b60405180910390fd5b6110d5838383611cef565b60008060008573ffffffffffffffffffffffffffffffffffffffff1673ffffffffffffffffffffffffffffffffffffffff1681526020019081526020016000205490508181101561115b576040517f08c379a000000000000000000000000000000000000000000000000000000000815260040161115290613159565b60405180910390fd5b8181036000808673ffffffffffffffffffffffffffffffffffffffff1673ffffffffffffffffffffffffffffffffffffffff16815260200190815260200160002081905550816000808573ffffffffffffffffffffffffffffffffffffffff1673ffffffffffffffffffffffffffffffffffffffff16815260200190815260200160002060008282546111ee9190613461565b925050819055508273ffffffffffffffffffffffffffffffffffffffff168473ffffffffffffffffffffffffffffffffffffffff167fddf252ad1be2c89b69c2b068fc378daa952ba7f163c4a11628f55a4df523b3ef846040516112529190613399565b60405180910390a3611265848484611cf4565b50505050565b600080828461127a9190613461565b9050838110156112bf576040517f08c379a00000000000000000000000000000000000000000000000000000000081526004016112b690613119565b60405180910390fd5b8091505092915050565b6000808314156112dc576000905061133e565b600082846112ea91906134e8565b90508284826112f991906134b7565b14611339576040517f08c379a0000000000000000000000000000000000000000000000000000000008152600401611330906131f9565b60405180910390fd5b809150505b92915050565b600061138683836040518060400160405280601a81526020017f536166654d6174683a206469766973696f6e206279207a65726f000000000000815250611cf9565b905092915050565b611411846323b872dd60e01b8585856040516024016113af93929190612fca565b604051602081830303815290604052907bffffffffffffffffffffffffffffffffffffffffffffffffffffffff19166020820180517bffffffffffffffffffffffffffffffffffffffffffffffffffffffff8381831617835250505050611d5c565b50505050565b6114988363a9059cbb60e01b8484604051602401611436929190613001565b604051602081830303815290604052907bffffffffffffffffffffffffffffffffffffffffffffffffffffffff19166020820180517bffffffffffffffffffffffffffffffffffffffffffffffffffffffff8381831617835250505050611d5c565b505050565b81600781905550806008819055505050565b6000806000806114bd61046c565b915091506000821480156114d15750600081145b156114e557878780945081955050506115e4565b60006114f2898484611e23565b905087811161154d578581101561153e576040517f08c379a000000000000000000000000000000000000000000000000000000000815260040161153590613219565b60405180910390fd5b888180955081965050506115e2565b600061155a898486611e23565b905089811115611593577f4e487b7100000000000000000000000000000000000000000000000000000000600052600160045260246000fd5b878110156115d6576040517f08c379a00000000000000000000000000000000000000000000000000000000081526004016115cd906131b9565b60405180910390fd5b80898096508197505050505b505b505094509492505050565b60008060006115fc61046c565b915091506000600560009054906101000a900473ffffffffffffffffffffffffffffffffffffffff1673ffffffffffffffffffffffffffffffffffffffff166370a08231306040518263ffffffff1660e01b815260040161165d9190612faf565b60206040518083038186803b15801561167557600080fd5b505afa158015611689573d6000803e3d6000fd5b505050506040513d601f19601f820116820180604052508101906116ad919061267e565b90506000600660009054906101000a900473ffffffffffffffffffffffffffffffffffffffff1673ffffffffffffffffffffffffffffffffffffffff166370a08231306040518263ffffffff1660e01b815260040161170c9190612faf565b60206040518083038186803b15801561172457600080fd5b505afa158015611738573d6000803e3d6000fd5b505050506040513d601f19601f8201168201806040525081019061175c919061267e565b905060006117738584611edd90919063ffffffff16565b9050600061178a8584611edd90919063ffffffff16565b905060006117966104c6565b905060008114156117f05764e8d4a510006117ba83856112c990919063ffffffff16565b6117c491906134b7565b97506117d08383611f27565b886117db91906134b7565b6009819055506117eb8989611f40565b61180b565b826009546117fe91906134e8565b975061180a8989611f40565b5b6000881161184e576040517f08c379a000000000000000000000000000000000000000000000000000000000815260040161184590613199565b60405180910390fd5b611858858561149d565b3373ffffffffffffffffffffffffffffffffffffffff167f4c209b5fc8ad50758f13e2e1088ba56a560dff690a1c6fef26394f4c03821c4f84846040516118a09291906133b4565b60405180910390a250505050505050919050565b6000803090506118c5858285610f5e565b6118d0858585610fea565b60019150509392505050565b6000806000600560009054906101000a900473ffffffffffffffffffffffffffffffffffffffff1690506000600660009054906101000a900473ffffffffffffffffffffffffffffffffffffffff16905060006119376104c6565b905060006119443061053f565b905060008473ffffffffffffffffffffffffffffffffffffffff166370a08231306040518263ffffffff1660e01b81526004016119819190612faf565b60206040518083038186803b15801561199957600080fd5b505afa1580156119ad573d6000803e3d6000fd5b505050506040513d601f19601f820116820180604052508101906119d1919061267e565b905060008473ffffffffffffffffffffffffffffffffffffffff166370a08231306040518263ffffffff1660e01b8152600401611a0e9190612faf565b60206040518083038186803b158015611a2657600080fd5b505afa158015611a3a573d6000803e3d6000fd5b505050506040513d601f19601f82011682018060405250810190611a5e919061267e565b9050611a8584611a7784866112c990919063ffffffff16565b61134490919063ffffffff16565b9750611aac84611a9e83866112c990919063ffffffff16565b61134490919063ffffffff16565b9650600088118015611abe5750600087115b611afd576040517f08c379a0000000000000000000000000000000000000000000000000000000008152600401611af490613239565b60405180910390fd5b611b0730846120a0565b611b3289898873ffffffffffffffffffffffffffffffffffffffff166114179092919063ffffffff16565b611b5d89888773ffffffffffffffffffffffffffffffffffffffff166114179092919063ffffffff16565b8573ffffffffffffffffffffffffffffffffffffffff166370a08231306040518263ffffffff1660e01b8152600401611b969190612faf565b60206040518083038186803b158015611bae57600080fd5b505afa158015611bc2573d6000803e3d6000fd5b505050506040513d601f19601f82011682018060405250810190611be6919061267e565b91508473ffffffffffffffffffffffffffffffffffffffff166370a08231306040518263ffffffff1660e01b8152600401611c219190612faf565b60206040518083038186803b158015611c3957600080fd5b505afa158015611c4d573d6000803e3d6000fd5b505050506040513d601f19601f82011682018060405250810190611c71919061267e565b9050611c7d828261149d565b8873ffffffffffffffffffffffffffffffffffffffff163373ffffffffffffffffffffffffffffffffffffffff167fdccd412f0b1252819cb1fd330b93224ca42612892bb3f4f789976e6d819364968a8a604051611cdc9291906133b4565b60405180910390a3505050505050915091565b505050565b505050565b60008083118290611d40576040517f08c379a0000000000000000000000000000000000000000000000000000000008152600401611d379190613097565b60405180910390fd5b5060008385611d4f91906134b7565b9050809150509392505050565b6000611dbe826040518060400160405280602081526020017f5361666545524332303a206c6f772d6c6576656c2063616c6c206661696c65648152508573ffffffffffffffffffffffffffffffffffffffff166122779092919063ffffffff16565b9050600081511115611e1e5780806020019051810190611dde9190612606565b611e1d576040517f08c379a0000000000000000000000000000000000000000000000000000000008152600401611e14906132d9565b60405180910390fd5b5b505050565b6000808411611e67576040517f08c379a0000000000000000000000000000000000000000000000000000000008152600401611e5e90613319565b60405180910390fd5b600083118015611e775750600082115b611eb6576040517f08c379a0000000000000000000000000000000000000000000000000000000008152600401611ead90613339565b60405180910390fd5b82611eca83866112c990919063ffffffff16565b611ed491906134b7565b90509392505050565b6000611f1f83836040518060400160405280601e81526020017f536166654d6174683a207375627472616374696f6e206f766572666c6f77000081525061228f565b905092915050565b6000818310611f365781611f38565b825b905092915050565b600073ffffffffffffffffffffffffffffffffffffffff168273ffffffffffffffffffffffffffffffffffffffff161415611fb0576040517f08c379a0000000000000000000000000000000000000000000000000000000008152600401611fa790613379565b60405180910390fd5b611fbc60008383611cef565b8060026000828254611fce9190613461565b92505081905550806000808473ffffffffffffffffffffffffffffffffffffffff1673ffffffffffffffffffffffffffffffffffffffff16815260200190815260200160002060008282546120239190613461565b925050819055508173ffffffffffffffffffffffffffffffffffffffff16600073ffffffffffffffffffffffffffffffffffffffff167fddf252ad1be2c89b69c2b068fc378daa952ba7f163c4a11628f55a4df523b3ef836040516120889190613399565b60405180910390a361209c60008383611cf4565b5050565b600073ffffffffffffffffffffffffffffffffffffffff168273ffffffffffffffffffffffffffffffffffffffff161415612110576040517f08c379a000000000000000000000000000000000000000000000000000000000815260040161210790613259565b60405180910390fd5b61211c82600083611cef565b60008060008473ffffffffffffffffffffffffffffffffffffffff1673ffffffffffffffffffffffffffffffffffffffff168152602001908152602001600020549050818110156121a2576040517f08c379a0000000000000000000000000000000000000000000000000000000008152600401612199906130d9565b60405180910390fd5b8181036000808573ffffffffffffffffffffffffffffffffffffffff1673ffffffffffffffffffffffffffffffffffffffff1681526020019081526020016000208190555081600260008282546121f99190613542565b92505081905550600073ffffffffffffffffffffffffffffffffffffffff168373ffffffffffffffffffffffffffffffffffffffff167fddf252ad1be2c89b69c2b068fc378daa952ba7f163c4a11628f55a4df523b3ef8460405161225e9190613399565b60405180910390a361227283600084611cf4565b505050565b606061228684846000856122f3565b90509392505050565b60008383111582906122d7576040517f08c379a00000000000000000000000000000000000000000000000000000000081526004016122ce9190613097565b60405180910390fd5b50600083856122e69190613542565b9050809150509392505050565b606082471015612338576040517f08c379a000000000000000000000000000000000000000000000000000000000815260040161232f90613179565b60405180910390fd5b61234185612407565b612380576040517f08c379a0000000000000000000000000000000000000000000000000000000008152600401612377906132b9565b60405180910390fd5b6000808673ffffffffffffffffffffffffffffffffffffffff1685876040516123a99190612f98565b60006040518083038185875af1925050503d80600081146123e6576040519150601f19603f3d011682016040523d82523d6000602084013e6123eb565b606091505b50915091506123fb828286612446565b92505050949350505050565b6000808273ffffffffffffffffffffffffffffffffffffffff16803b806020016040519081016040528181526000908060200190933c51119050919050565b60608315612456578290506124a6565b6000835111156124695782518084602001fd5b816040517f08c379a000000000000000000000000000000000000000000000000000000000815260040161249d9190613097565b60405180910390fd5b9392505050565b6000813590506124bc81613704565b92915050565b6000815190506124d18161371b565b92915050565b6000813590506124e681613732565b92915050565b6000813590506124fb81613749565b92915050565b60008151905061251081613749565b92915050565b60006020828403121561252857600080fd5b6000612536848285016124ad565b91505092915050565b6000806040838503121561255257600080fd5b6000612560858286016124ad565b9250506020612571858286016124ad565b9150509250929050565b60008060006060848603121561259057600080fd5b600061259e868287016124ad565b93505060206125af868287016124ad565b92505060406125c0868287016124ec565b9150509250925092565b600080604083850312156125dd57600080fd5b60006125eb858286016124ad565b92505060206125fc858286016124ec565b9150509250929050565b60006020828403121561261857600080fd5b6000612626848285016124c2565b91505092915050565b60008060006060848603121561264457600080fd5b6000612652868287016124d7565b9350506020612663868287016124ec565b9250506040612674868287016124ec565b9150509250925092565b60006020828403121561269057600080fd5b600061269e84828501612501565b91505092915050565b600080600080608085870312156126bd57600080fd5b60006126cb878288016124ec565b94505060206126dc878288016124ec565b93505060406126ed878288016124ec565b92505060606126fe878288016124ad565b91505092959194509250565b600080600080600060a0868803121561272257600080fd5b6000612730888289016124ec565b9550506020612741888289016124ec565b9450506040612752888289016124ec565b9350506060612763888289016124ec565b9250506080612774888289016124ad565b9150509295509295909350565b61278a81613576565b82525050565b61279981613588565b82525050565b60006127aa8261342f565b6127b48185613445565b93506127c4818560208601613601565b80840191505092915050565b6127d9816135dd565b82525050565b60006127ea8261343a565b6127f48185613450565b9350612804818560208601613601565b61280d816136f3565b840191505092915050565b6000612825602383613450565b91507f45524332303a207472616e7366657220746f20746865207a65726f206164647260008301527f65737300000000000000000000000000000000000000000000000000000000006020830152604082019050919050565b600061288b602283613450565b91507f45524332303a206275726e20616d6f756e7420657863656564732062616c616e60008301527f63650000000000000000000000000000000000000000000000000000000000006020830152604082019050919050565b60006128f1602283613450565b91507f45524332303a20617070726f766520746f20746865207a65726f20616464726560008301527f73730000000000000000000000000000000000000000000000000000000000006020830152604082019050919050565b6000612957601b83613450565b91507f536166654d6174683a206164646974696f6e206f766572666c6f7700000000006000830152602082019050919050565b6000612997601d83613450565b91507f45524332303a20696e73756666696369656e7420616c6c6f77616e63650000006000830152602082019050919050565b60006129d7602683613450565b91507f45524332303a207472616e7366657220616d6f756e742065786365656473206260008301527f616c616e636500000000000000000000000000000000000000000000000000006020830152604082019050919050565b6000612a3d602683613450565b91507f416464726573733a20696e73756666696369656e742062616c616e636520666f60008301527f722063616c6c00000000000000000000000000000000000000000000000000006020830152604082019050919050565b6000612aa3601d83613450565b91507f494e53554646494349454e545f4c49515549444954595f4d494e5445440000006000830152602082019050919050565b6000612ae3601583613450565b91507f494e53554646494349454e545f415f414d4f554e5400000000000000000000006000830152602082019050919050565b6000612b23601283613450565b91507f7377617020696e2077726f6e6720706f6f6c00000000000000000000000000006000830152602082019050919050565b6000612b63602183613450565b91507f536166654d6174683a206d756c7469706c69636174696f6e206f766572666c6f60008301527f77000000000000000000000000000000000000000000000000000000000000006020830152604082019050919050565b6000612bc9601583613450565b91507f494e53554646494349454e545f425f414d4f554e5400000000000000000000006000830152602082019050919050565b6000612c09601d83613450565b91507f494e53554646494349454e545f4c49515549444954595f4255524e45440000006000830152602082019050919050565b6000612c49602183613450565b91507f45524332303a206275726e2066726f6d20746865207a65726f2061646472657360008301527f73000000000000000000000000000000000000000000000000000000000000006020830152604082019050919050565b6000612caf602583613450565b91507f45524332303a207472616e736665722066726f6d20746865207a65726f20616460008301527f64726573730000000000000000000000000000000000000000000000000000006020830152604082019050919050565b6000612d15602483613450565b91507f45524332303a20617070726f76652066726f6d20746865207a65726f2061646460008301527f72657373000000000000000000000000000000000000000000000000000000006020830152604082019050919050565b6000612d7b601d83613450565b91507f416464726573733a2063616c6c20746f206e6f6e2d636f6e74726163740000006000830152602082019050919050565b6000612dbb602a83613450565b91507f5361666545524332303a204552433230206f7065726174696f6e20646964206e60008301527f6f742073756363656564000000000000000000000000000000000000000000006020830152604082019050919050565b6000612e21601d83613450565b91507f7377617020646f7365206e6f74207374617469736669656420757365720000006000830152602082019050919050565b6000612e61601383613450565b91507f494e53554646494349454e545f414d4f554e54000000000000000000000000006000830152602082019050919050565b6000612ea1601683613450565b91507f494e53554646494349454e545f4c4951554944495459000000000000000000006000830152602082019050919050565b6000612ee1602583613450565b91507f45524332303a2064656372656173656420616c6c6f77616e63652062656c6f7760008301527f207a65726f0000000000000000000000000000000000000000000000000000006020830152604082019050919050565b6000612f47601f83613450565b91507f45524332303a206d696e7420746f20746865207a65726f2061646472657373006000830152602082019050919050565b612f83816135c6565b82525050565b612f92816135d0565b82525050565b6000612fa4828461279f565b915081905092915050565b6000602082019050612fc46000830184612781565b92915050565b6000606082019050612fdf6000830186612781565b612fec6020830185612781565b612ff96040830184612f7a565b949350505050565b60006040820190506130166000830185612781565b6130236020830184612f7a565b9392505050565b600060208201905061303f6000830184612790565b92915050565b600060208201905061305a60008301846127d0565b92915050565b600060608201905061307560008301866127d0565b6130826020830185612f7a565b61308f6040830184612f7a565b949350505050565b600060208201905081810360008301526130b181846127df565b905092915050565b600060208201905081810360008301526130d281612818565b9050919050565b600060208201905081810360008301526130f28161287e565b9050919050565b60006020820190508181036000830152613112816128e4565b9050919050565b600060208201905081810360008301526131328161294a565b9050919050565b600060208201905081810360008301526131528161298a565b9050919050565b60006020820190508181036000830152613172816129ca565b9050919050565b6000602082019050818103600083015261319281612a30565b9050919050565b600060208201905081810360008301526131b281612a96565b9050919050565b600060208201905081810360008301526131d281612ad6565b9050919050565b600060208201905081810360008301526131f281612b16565b9050919050565b6000602082019050818103600083015261321281612b56565b9050919050565b6000602082019050818103600083015261323281612bbc565b9050919050565b6000602082019050818103600083015261325281612bfc565b9050919050565b6000602082019050818103600083015261327281612c3c565b9050919050565b6000602082019050818103600083015261329281612ca2565b9050919050565b600060208201905081810360008301526132b281612d08565b9050919050565b600060208201905081810360008301526132d281612d6e565b9050919050565b600060208201905081810360008301526132f281612dae565b9050919050565b6000602082019050818103600083015261331281612e14565b9050919050565b6000602082019050818103600083015261333281612e54565b9050919050565b6000602082019050818103600083015261335281612e94565b9050919050565b6000602082019050818103600083015261337281612ed4565b9050919050565b6000602082019050818103600083015261339281612f3a565b9050919050565b60006020820190506133ae6000830184612f7a565b92915050565b60006040820190506133c96000830185612f7a565b6133d66020830184612f7a565b9392505050565b60006060820190506133f26000830186612f7a565b6133ff6020830185612f7a565b61340c6040830184612f7a565b949350505050565b60006020820190506134296000830184612f89565b92915050565b600081519050919050565b600081519050919050565b600081905092915050565b600082825260208201905092915050565b600061346c826135c6565b9150613477836135c6565b9250827fffffffffffffffffffffffffffffffffffffffffffffffffffffffffffffffff038211156134ac576134ab613666565b5b828201905092915050565b60006134c2826135c6565b91506134cd836135c6565b9250826134dd576134dc613695565b5b828204905092915050565b60006134f3826135c6565b91506134fe836135c6565b9250817fffffffffffffffffffffffffffffffffffffffffffffffffffffffffffffffff048311821515161561353757613536613666565b5b828202905092915050565b600061354d826135c6565b9150613558836135c6565b92508282101561356b5761356a613666565b5b828203905092915050565b6000613581826135a6565b9050919050565b60008115159050919050565b600061359f82613576565b9050919050565b600073ffffffffffffffffffffffffffffffffffffffff82169050919050565b6000819050919050565b600060ff82169050919050565b60006135e8826135ef565b9050919050565b60006135fa826135a6565b9050919050565b60005b8381101561361f578082015181840152602081019050613604565b8381111561362e576000848401525b50505050565b6000600282049050600182168061364c57607f821691505b602082108114156136605761365f6136c4565b5b50919050565b7f4e487b7100000000000000000000000000000000000000000000000000000000600052601160045260246000fd5b7f4e487b7100000000000000000000000000000000000000000000000000000000600052601260045260246000fd5b7f4e487b7100000000000000000000000000000000000000000000000000000000600052602260045260246000fd5b6000601f19601f8301169050919050565b61370d81613576565b811461371857600080fd5b50565b61372481613588565b811461372f57600080fd5b50565b61373b81613594565b811461374657600080fd5b50565b613752816135c6565b811461375d57600080fd5b5056fea26469706673582212200beaf1fc4bb98b2c3427f7c0487b801d6cbb42ec4b181874eba1c5c1a8c24a5464736f6c63430008000033",
  "linkReferences": {},
  "deployedLinkReferences": {}
}